:100000000C9462000C948A000C948A000C948A0070
:100010000C948A000C948A000C948A000C948A0038
:100020000C948A000C948A000C948A000C94B004FE
:100030000C948A000C948A000C948A000C948A0018
:100040000C9466040C948A000C9434040C940E04F2
:100050000C948A000C948A000C948A000C948A00F8
:100060000C948A000C948A000000000024002700F1
:100070002A0000000000250028002B0000000008D6
:10008000000201000003040700000000000000005F
:1000900000000000230026002900040404040404D6
:1000A0000404020202020202030303030303010227
:1000B00004081020408001020408102001020408F6
:1000C0001020B10511241FBECFEFD8E0DEBFCDBF99
:1000D00011E0A0E0B1E0E6E2F3E102C005900D928C
:1000E000A835B107D9F722E0A8E5B1E001C01D921B
:1000F000AF33B207E1F710E0C2E6D0E004C02197C9
:10010000FE010E948B09C136D107C9F70E9439064A
:100110000C9491090C940000E0913C02EC3088F5BD
:1001200040913D0228E830E0241B310947FD33951A
:10013000220F331F220F331F8217930784F0409141
:100140003E0228E532E0241B310947FD3395220F9A
:10015000331F220F331F821793070CF49C01225088
:100160003109220F331F4FB7F8948E2F90E0FC0116
:10017000EE0FFF1FE80FF91FE150FE4F328321837E
:100180004FBF0895AF92BF92CF92DF92EF92FF924E
:100190000F931F93CF93DF936C017B018B01040FAF
:1001A000151FEB015E01AE18BF08C017D10759F04B
:1001B0006991D601ED91FC910190F081E02DC6018D
:1001C0000995892B79F7C501DF91CF911F910F9187
:1001D000FF90EF90DF90CF90BF90AF900895FC011B
:1001E000538D448D252F30E0842F90E0821B930B9C
:1001F000541710F0CF96089501970895FC01918D42
:10020000828D981761F0A28DAE0FBF2FB11D5D9644
:100210008C91928D9F5F9F73928F90E008958FEFE6
:100220009FEF0895FC01918D828D981731F0828D9A
:10023000E80FF11D858D90E008958FEF9FEF0895F1
:10024000FC01918D228D892F90E0805C9F4F821B55
:1002500091098F739927089582E691E00E94200109
:1002600021E0892B09F420E0822F089580E090E0BE
:10027000892B29F00E942C0181110C940000089513
:10028000FC01A48DA80FB92FB11DA35ABF4F2C910B
:10029000848D90E001968F739927848FA689B78902
:1002A0002C93A089B1898C91837080648C93938DF9
:1002B000848D981306C00288F389E02D80818F7D9C
:1002C00080830895EF92FF920F931F93CF93DF9354
:1002D000EC0181E0888F9B8D8C8D98131AC0E88982
:1002E000F989808185FF15C09FB7F894EE89FF8951
:1002F0006083E889F98980818370806480839FBFEF
:1003000081E090E0DF91CF911F910F91FF90EF90EE
:100310000895F62E0B8D10E00F5F1F4F0F731127FE
:10032000E02E8C8D8E110CC00FB607FCFACFE88939
:10033000F989808185FFF5CFCE010E944001F1CF80
:10034000EB8DEC0FFD2FF11DE35AFF4FF0829FB7AD
:10035000F8940B8FEA89FB8980818062CFCFCF939D
:10036000DF93EC01888D8823B9F0AA89BB89E889DD
:10037000F9898C9185FD03C0808186FD0DC00FB683
:1003800007FCF7CF8C9185FFF2CF808185FFEDCF01
:10039000CE010E944001E9CFDF91CF91089590E016
:1003A000FC01E458FF4F2491FC01E255FF4F3491CA
:1003B000FC01E656FF4FE491EE23C9F0222339F009
:1003C000233001F1A8F4213019F1223029F1F0E0B5
:1003D000EE0FFF1FEE58FF4FA591B4918FB7F89421
:1003E000EC91611126C030953E233C938FBF089558
:1003F0002730A9F02830C9F0243049F780918000D7
:100400008F7D03C0809180008F7780938000DFCF45
:1004100084B58F7784BDDBCF84B58F7DFBCF809192
:10042000B0008F778093B000D2CF8091B0008F7DE5
:10043000F9CF3E2BDACFCF93DF9390E0FC01E2556A
:10044000FF4F249186569F4FFC0184918823D1F061
:1004500090E0880F991FFC01E859FF4FA591B491D6
:10046000FC01EE58FF4FC591D49161110EC09FB7AA
:10047000F8948C91E22FE0958E238C932881E223CF
:10048000E8839FBFDF91CF9108958FB7F894EC91E7
:10049000E22BEC938FBFF6CF3FB7F89480915E01CB
:1004A00090915F01A0916001B091610126B5A89B78
:1004B00005C02F3F19F00196A11DB11D3FBFBA2FF6
:1004C000A92F982F8827BC01CD01620F711D811DB6
:1004D000911D42E0660F771F881F991F4A95D1F73B
:1004E00008958F929F92AF92BF92CF92DF92EF9238
:1004F000FF924B015C010E944C026B017C010E9447
:100500004C026C197D098E099F09683E7340810574
:100510009105A8F321E0821A9108A108B10888EE9C
:10052000C80E83E0D81EE11CF11C81149104A104C3
:10053000B10429F7FF90EF90DF90CF90BF90AF907C
:100540009F908F900895089590E080E00895FC01B9
:1005500001900020E9F73197AF01481B590BBC010E
:1005600084E292E00C94C200CF93DF93EC0160E050
:100570008E810E94CF0161E08E810E94CF0160E0F8
:100580008E810E94CF018BE891E00197F1F7DF9116
:10059000CF910895CF92DF92EF92FF920F931F9326
:1005A000CF93DF936C017C0187E0E80EF11CD0E073
:1005B000C0E0062F10E0B8010C2E02C075956795BB
:1005C0000A94E2F76170F70181917F010E94CF01E7
:1005D0002196C430D10579F7C601DF91CF911F91E3
:1005E0000F91FF90EF90DF90CF900C94B402CF92D8
:1005F000DF92EF92FF920F931F93CF93DF93EC0163
:10060000F62E642F8C810E94CF018D818F3F19F0CF
:1006100060E00E94CF010F2D10E08F8584FF25C080
:100620006E0187E0C80ED11CF12CE12CB8010E2C14
:1006300002C0759567950A94E2F76170F6018191A1
:100640006F010E94CF01FFEFEF1AFF0A88E0E81662
:10065000F10461F7CE01DF91CF911F910F91FF90CF
:10066000EF90DF90CF900C94B402B80184E07595C0
:1006700067958A95E1F7CE010E94CA026F2DCE01DF
:10068000DF91CF911F910F91FF90EF90DF90CF906E
:100690000C94CA0240E0682F84E292E00C94F702C6
:1006A00081E00E944A038BE39FE10197F1F70895EF
:1006B000CF93DF93823029F4909133029860909326
:1006C0003302809337021092380280E4809339021B
:1006D00080E180933A0280E580933B0261E0809163
:1006E00028020E941B02809129028F3F19F061E0CD
:1006F0000E941B0261E080912A020E941B02C4E258
:10070000D2E09E01245232408091330284FD0BC01E
:1007100084E090E021962817390744F461E08E8147
:100720000E941B02EECF88E090E0F4CF8BE39DE0C7
:100730000197F1F760E0809128020E94CF0160E00C
:1007400080912A020E94CF01809129028F3F19F0E7
:1007500060E00E94CF018091330284FD34C063E0E9
:1007600084E292E00E94CA02CBE4D6E4CE01019773
:10077000F1F763E084E292E00E94CA022197F1F768
:1007800063E084E292E00E94CA0283E592E001976E
:10079000F1F762E084E292E00E94CA0280913302A3
:1007A00080620E944A0384E0809334028CE00E94BD
:1007B0004A030E94500382E08093350286E0DF9175
:1007C000CF910C944A0380620E944A038BE496E422
:1007D0000197F1F78091330280620E944A0383E51A
:1007E00092E00197F1F78091330280620E944A0300
:1007F000D5CF90913702691710F06FEF690FE62F90
:10080000F0E0EC5DFD4F9489890F80680C944A03F9
:1008100041E00E94F70281E090E008951F920F925C
:100820000FB60F9211242F933F934F935F936F93C3
:100830007F938F939F93AF93BF93EF93FF9382E642
:1008400091E00E944001FF91EF91BF91AF919F9184
:100850008F917F916F915F914F913F912F910F9069
:100860000FBE0F901F9018951F920F920FB60F9208
:1008700011242F938F939F93EF93FF93E091720135
:10088000F09173018081E0917801F091790182FD0E
:100890001BC0908180917B018F5F8F7320917C01C1
:1008A000821741F0E0917B01F0E0EE59FE4F958F09
:1008B00080937B01FF91EF919F918F912F910F90EA
:1008C0000FBE0F901F9018958081F4CF1F920F924A
:1008D0000FB60F9211242F933F938F939F93AF9353
:1008E000BF9380915A0190915B01A0915C01B091FE
:1008F0005D013091590123E0230F2D3758F5019602
:10090000A11DB11D2093590180935A0190935B0161
:10091000A0935C01B0935D0180915E0190915F01B5
:10092000A0916001B09161010196A11DB11D80935C
:100930005E0190935F01A0936001B0936101BF914C
:10094000AF919F918F913F912F910F900FBE0F907C
:100950001F90189526E8230F0296A11DB11DD2CF36
:100960001F920F920FB60F9211242F933F934F9324
:100970005F936F937F938F939F93AF93BF93CF9327
:10098000DF93EF93FF9380915801C0912302D0E051
:1009900087FF24C010928500109284008091580136
:1009A0008F5F8093580180915801082E000C990B9D
:1009B0008C179D0724F4809158018C30C4F18091EC
:1009C000840090918500049680349C4908F47AC094
:1009D0008091840090918500049676C080915801A2
:1009E000082E000C990B8C179D07C4F6E091580156
:1009F0008E2FEE0F990BFC01EE0FFF1FE80FF91F72
:100A0000E150FE4F808186FFC9CFE09158018E2FC3
:100A1000EE0F990BFC01EE0FFF1FE80FF91FE150DD
:100A2000FE4F808160E08F730E94CF01B7CF20918D
:100A3000840030918500E09158018E2FEE0F990BC4
:100A4000FC01EE0FFF1FE80FF91FE150FE4F8181FF
:100A50009281820F931F9093890080938800E09188
:100A600058018E2FEE0F990BFC01EE0FFF1FE80FC0
:100A7000F91FE150FE4F808186FF11C0E0915801BF
:100A80008E2FEE0F990BFC01EE0FFF1FE80FF91FE1
:100A9000E150FE4F808161E08F730E94CF01FF9192
:100AA000EF91DF91CF91BF91AF919F918F917F9106
:100AB0006F915F914F913F912F910F900FBE0F90CB
:100AC0001F90189580E49CE990938900809388009A
:100AD0008FEF80935801E3CFCF92DF92EF92FF9296
:100AE0000F931F93E82FF92F05C001501109210919
:100AF000310961F1908196239417B9F305C0015033
:100B000011092109310911F1908196239413F7CF2E
:100B1000C12CD12CE12CF12C0AC08FEFC81AD80AB5
:100B2000E80AF80A0C151D052E053F0579F08081AD
:100B30008623841791F36C2D7D2D8E2D9F2D1F9173
:100B40000F91FF90EF90DF90CF90089560E070E0FC
:100B500080E090E01F910F91FF90EF90DF90CF9099
:100B60000895109265011092640188EE93E0A0E070
:100B7000B0E08093660190936701A0936801B09301
:100B8000690184E091E0909363018093620185ECB8
:100B900090E090936F0180936E0184EC90E09093CD
:100BA00071018093700180EC90E0909373018093C9
:100BB000720181EC90E0909375018093740182EC56
:100BC00090E0909377018093760186EC90E090938B
:100BD00079018093780110927B0110927C01109230
:100BE0007D0110927E01809123028C30F0F591E01E
:100BF000980F9093230280933C0290E0FC01EE0F4B
:100C0000FF1FE80FF91FE150FE4F88EB9BE0928336
:100C10008183109227021092260286E191E0909340
:100C200025028093240287E0809328028FEF80932F
:100C3000290286E080932A0285E080932B0284E0DB
:100C400080932C0283E080932D0282E080932E0219
:100C500010922F0210923002109231021092320242
:100C60001092330281E00C9458038FEF80933C0282
:100C7000D0CF789484B5826084BD84B5816084BD12
:100C800085B5826085BD85B5816085BD80916E002A
:100C9000816080936E00109281008091810082605B
:100CA0008093810080918100816080938100809198
:100CB00080008160809380008091B1008460809387
:100CC000B1008091B00081608093B00080917A0083
:100CD000846080937A0080917A00826080937A00A9
:100CE00080917A00816080937A0080917A00806898
:100CF00080937A001092C10080913C028C3008F001
:100D000051C061E089E00E941B0280913C02282FC3
:100D100030E0F901EE0FFF1FE20FF31FE150FE4F2D
:100D20009081907C9960908310923D0210923E02D7
:100D30002CE0622F0E947F09829FB001112430E0D5
:100D400020E0AB01420F531FFA01EE0FFF1FE40F2B
:100D5000F51FE150FE4F908196FD16C02F5F3F4F6B
:100D60002C30310571F781110FC01092800082E0A4
:100D7000809381001092850010928400B19A809136
:100D80006F00826080936F00E0913C028E2F90E0B4
:100D9000FC01EE0FFF1FE80FF91FE150FE4F8081AD
:100DA0008064808361E08AE00E941B0260E08BE047
:100DB0000E941B0261E08DE00E941B0261E08CE05A
:100DC0000E941B02E0917201F091730182E0808326
:100DD000E0916E01F0916F011082E0917001F0914D
:100DE00071018FEC808310927A01E0917601F0918D
:100DF000770186E08083E0917401F0917501808134
:100E000080618083E0917401F09175018081886038
:100E10008083E0917401F091750180818068808306
:100E2000E0917401F091750180818F7D808382E073
:100E30000E94580345EA242E40E0342E58E8C52E7F
:100E4000D12C68E5862E62E0962E74EB472E512C4D
:100E5000612C712CE0E0AE2EE0E0BE2E60E08AE076
:100E60000E94CF0162E070E080E090E00E94710299
:100E700061E08AE00E94CF0183E290E00197F1F700
:100E800060E08AE00E94CF01E9EBF0E06491F101BB
:100E90008491E82FF0E0EE0FFF1FE057FF4F8591A0
:100EA000949100E412E42FE030E0462F0E946C059C
:100EB000611571058105910529F06F5F7F4F8F4F97
:100EC0009F4F9F7020913D02E601C21BD10927FD73
:100ED000D395CC0FDD1FCC0FDD1F0E94F1082EEA49
:100EE00037E44BE652E40E9449080E94BB086C3389
:100EF0007105ACF5CE010E948C000E94500360E0A9
:100F000080E00E94F9038EE191E00E94A70261E077
:100F100082E00E94F90380E391E00E94A70260E072
:100F20008DE00E94CF0160E08CE00E94CF0168E874
:100F300073E180E090E00E94710268EB7BE080E06A
:100F400090E00E947102A114B10409F487CF0E94BD
:100F50002C01882309F482CF0E9400007FCF7E01FC
:100F6000DD0F000B110B80913E029401281B31090B
:100F700087FD3395220F331F220F331F032E000CE2
:100F8000440B550B2E193F09400B510BAAE5B0E05D
:100F90000E940D08A30192010E94EE07DA01C90127
:100FA0008E0D9F1DA01FB11F0E948C000E94500338
:100FB00060E080E00E94F9038DE391E00E94A702C7
:100FC00061E082E00E94F9038CE491E00E94A702B4
:100FD00061E08DE00E94CF0161E0A6CF052E97FB76
:100FE0001EF400940E94050857FD07D00E941808BF
:100FF00007FC03D04EF40C940508509540953095AD
:1010000021953F4F4F4F5F4F089590958095709574
:1010100061957F4F8F4F9F4F08950E943A08A59F7B
:10102000900DB49F900DA49F800D911D11240895E3
:10103000A1E21A2EAA1BBB1BFD010DC0AA1FBB1FDC
:10104000EE1FFF1FA217B307E407F50720F0A21B4E
:10105000B30BE40BF50B661F771F881F991F1A94BB
:1010600069F760957095809590959B01AC01BD01E5
:10107000CF010895A29FB001B39FC001A39F700D3F
:10108000811D1124911DB29F700D811D1124911D90
:1010900008950E945D080C9445090E943E0958F08D
:1010A0000E94370940F029F45F3F29F00C942E0983
:1010B00051110C9479090C9434090E94560968F373
:1010C0009923B1F3552391F3951B550BBB27AA2701
:1010D00062177307840738F09F5F5F4F220F331F3B
:1010E000441FAA1FA9F335D00E2E3AF0E0E832D003
:1010F00091505040E695001CCAF72BD0FE2F29D006
:10110000660F771F881FBB1F261737074807AB07D7
:10111000B0E809F0BB0B802DBF01FF2793585F4F4C
:101120003AF09E3F510578F00C942E090C94790901
:101130005F3FE4F3983ED4F3869577956795B7952E
:10114000F7959F5FC9F7880F911D9695879597F939
:101150000895E1E0660F771F881FBB1F62177307B2
:101160008407BA0720F0621B730B840BBA0BEE1FC7
:1011700088F7E09508950E94C2086894B1110C9414
:10118000790908950E945E0988F09F5798F0B92F59
:101190009927B751B0F0E1F0660F771F881F991FAC
:1011A0001AF0BA95C9F714C0B13091F00E947809CD
:1011B000B1E008950C947809672F782F8827B85FDD
:1011C00039F0B93FCCF3869577956795B395D9F704
:1011D0003EF490958095709561957F4F8F4F9F4F0E
:1011E0000895E89409C097FB3EF49095809570951A
:1011F00061957F4F8F4F9F4F9923A9F0F92F96E963
:10120000BB279395F695879577956795B795F111D7
:10121000F8CFFAF4BB0F11F460FF1BC06F5F7F4F74
:101220008F4F9F4F16C0882311F096E911C0772386
:1012300021F09EE8872F762F05C0662371F096E88F
:10124000862F70E060E02AF09A95660F771F881F5E
:10125000DAF7880F9695879597F9089597F99F671C
:1012600080E870E060E008959FEF80EC089500242E
:101270000A941616170618060906089500240A94FB
:1012800012161306140605060895092E0394000C81
:1012900011F4882352F0BB0F40F4BF2B11F460FF10
:1012A00004C06F5F7F4F8F4F9F4F089557FD905839
:1012B000440F551F59F05F3F71F04795880F97FB1A
:1012C000991F61F09F3F79F08795089512161306D4
:1012D0001406551FF2CF4695F1DF08C01616170603
:1012E0001806991FF1CF8695710561050894089538
:1012F000E894BB2766277727CB0197F90895991BB8
:1013000079E004C0991F961708F0961B881F7A95FC
:10131000C9F780950895EE0FFF1F0590F491E02D19
:061320000994F894FFCFD0
:10132600000000006201C200EF00AF012001FE00D4
:101336001201000000000804C200A402A3025472B5
:1013460061696E20446570617274757265642C0003
:1013560047617465206973206F70656E0054726111
:10136600696E20417272697665642E00506C656103
:081376007365207761697400C2
:00000001FF
